{
  "_format": "hh-sol-artifact-1",
  "contractName": "CPRinstance",
  "sourceName": "contracts/CPRinstance.sol",
  "abi": [
    {
      "inputs": [
        {
          "internalType": "address[]",
          "name": "_address2dist",
          "type": "address[]"
        }
      ],
      "stateMutability": "nonpayable",
      "type": "constructor"
    },
    {
      "anonymous": false,
      "inputs": [
        {
          "indexed": true,
          "internalType": "address",
          "name": "owner",
          "type": "address"
        },
        {
          "indexed": true,
          "internalType": "address",
          "name": "spender",
          "type": "address"
        },
        {
          "indexed": false,
          "internalType": "uint256",
          "name": "value",
          "type": "uint256"
        }
      ],
      "name": "Approval",
      "type": "event"
    },
    {
      "anonymous": false,
      "inputs": [],
      "name": "DistributedShares",
      "type": "event"
    },
    {
      "anonymous": false,
      "inputs": [],
      "name": "IssueReported",
      "type": "event"
    },
    {
      "anonymous": false,
      "inputs": [
        {
          "indexed": true,
          "internalType": "address",
          "name": "previousOwner",
          "type": "address"
        },
        {
          "indexed": true,
          "internalType": "address",
          "name": "newOwner",
          "type": "address"
        }
      ],
      "name": "OwnershipTransferred",
      "type": "event"
    },
    {
      "anonymous": false,
      "inputs": [],
      "name": "ProposalMade",
      "type": "event"
    },
    {
      "anonymous": false,
      "inputs": [],
      "name": "ProposalPassed",
      "type": "event"
    },
    {
      "anonymous": false,
      "inputs": [],
      "name": "ProposalRejected",
      "type": "event"
    },
    {
      "anonymous": false,
      "inputs": [],
      "name": "PurchasedShares",
      "type": "event"
    },
    {
      "anonymous": false,
      "inputs": [
        {
          "indexed": true,
          "internalType": "address",
          "name": "from",
          "type": "address"
        },
        {
          "indexed": true,
          "internalType": "address",
          "name": "to",
          "type": "address"
        },
        {
          "indexed": false,
          "internalType": "uint256",
          "name": "value",
          "type": "uint256"
        }
      ],
      "name": "Transfer",
      "type": "event"
    },
    {
      "anonymous": false,
      "inputs": [],
      "name": "Voted",
      "type": "event"
    },
    {
      "inputs": [
        {
          "internalType": "address",
          "name": "benefactor",
          "type": "address"
        }
      ],
      "name": "addBenefactor",
      "outputs": [
        {
          "internalType": "bool",
          "name": "",
          "type": "bool"
        }
      ],
      "stateMutability": "payable",
      "type": "function"
    },
    {
      "inputs": [
        {
          "internalType": "address",
          "name": "owner",
          "type": "address"
        },
        {
          "internalType": "address",
          "name": "spender",
          "type": "address"
        }
      ],
      "name": "allowance",
      "outputs": [
        {
          "internalType": "uint256",
          "name": "",
          "type": "uint256"
        }
      ],
      "stateMutability": "view",
      "type": "function"
    },
    {
      "inputs": [
        {
          "internalType": "address",
          "name": "user",
          "type": "address"
        }
      ],
      "name": "appointUserRole",
      "outputs": [],
      "stateMutability": "nonpayable",
      "type": "function"
    },
    {
      "inputs": [
        {
          "internalType": "address",
          "name": "spender",
          "type": "address"
        },
        {
          "internalType": "uint256",
          "name": "amount",
          "type": "uint256"
        }
      ],
      "name": "approve",
      "outputs": [
        {
          "internalType": "bool",
          "name": "",
          "type": "bool"
        }
      ],
      "stateMutability": "nonpayable",
      "type": "function"
    },
    {
      "inputs": [
        {
          "internalType": "address",
          "name": "account",
          "type": "address"
        }
      ],
      "name": "balanceOf",
      "outputs": [
        {
          "internalType": "uint256",
          "name": "",
          "type": "uint256"
        }
      ],
      "stateMutability": "view",
      "type": "function"
    },
    {
      "inputs": [
        {
          "internalType": "address",
          "name": "from",
          "type": "address"
        },
        {
          "internalType": "uint256",
          "name": "amount",
          "type": "uint256"
        }
      ],
      "name": "burn",
      "outputs": [],
      "stateMutability": "nonpayable",
      "type": "function"
    },
    {
      "inputs": [
        {
          "internalType": "uint256",
          "name": "quantity",
          "type": "uint256"
        }
      ],
      "name": "buyShares",
      "outputs": [],
      "stateMutability": "payable",
      "type": "function"
    },
    {
      "inputs": [],
      "name": "decimals",
      "outputs": [
        {
          "internalType": "uint8",
          "name": "",
          "type": "uint8"
        }
      ],
      "stateMutability": "view",
      "type": "function"
    },
    {
      "inputs": [
        {
          "internalType": "address",
          "name": "spender",
          "type": "address"
        },
        {
          "internalType": "uint256",
          "name": "subtractedValue",
          "type": "uint256"
        }
      ],
      "name": "decreaseAllowance",
      "outputs": [
        {
          "internalType": "bool",
          "name": "",
          "type": "bool"
        }
      ],
      "stateMutability": "nonpayable",
      "type": "function"
    },
    {
      "inputs": [],
      "name": "distributeShares",
      "outputs": [],
      "stateMutability": "payable",
      "type": "function"
    },
    {
      "inputs": [
        {
          "internalType": "address",
          "name": "issuer",
          "type": "address"
        },
        {
          "internalType": "uint256",
          "name": "issueID",
          "type": "uint256"
        }
      ],
      "name": "getIssue",
      "outputs": [
        {
          "components": [
            {
              "internalType": "address",
              "name": "issuer",
              "type": "address"
            },
            {
              "internalType": "uint256",
              "name": "issueID",
              "type": "uint256"
            },
            {
              "internalType": "bool",
              "name": "alarmLow",
              "type": "bool"
            },
            {
              "internalType": "bool",
              "name": "alarmHigh",
              "type": "bool"
            },
            {
              "internalType": "uint256",
              "name": "voteSlash",
              "type": "uint256"
            },
            {
              "internalType": "bool",
              "name": "slash",
              "type": "bool"
            },
            {
              "internalType": "address[]",
              "name": "voted2slash",
              "type": "address[]"
            }
          ],
          "internalType": "struct CPRinstance.Issue",
          "name": "",
          "type": "tuple"
        }
      ],
      "stateMutability": "view",
      "type": "function"
    },
    {
      "inputs": [],
      "name": "getLatestPrice",
      "outputs": [
        {
          "internalType": "int256",
          "name": "",
          "type": "int256"
        }
      ],
      "stateMutability": "view",
      "type": "function"
    },
    {
      "inputs": [
        {
          "internalType": "address",
          "name": "issuer",
          "type": "address"
        },
        {
          "internalType": "uint256",
          "name": "propID",
          "type": "uint256"
        }
      ],
      "name": "getProposal",
      "outputs": [
        {
          "components": [
            {
              "internalType": "address",
              "name": "issuer",
              "type": "address"
            },
            {
              "internalType": "uint256",
              "name": "propID",
              "type": "uint256"
            },
            {
              "internalType": "uint256",
              "name": "yay",
              "type": "uint256"
            },
            {
              "internalType": "uint256",
              "name": "nay",
              "type": "uint256"
            },
            {
              "internalType": "uint256",
              "name": "voteSlash",
              "type": "uint256"
            },
            {
              "internalType": "bool",
              "name": "slash",
              "type": "bool"
            },
            {
              "internalType": "address[]",
              "name": "voted",
              "type": "address[]"
            },
            {
              "internalType": "address[]",
              "name": "voted2slash",
              "type": "address[]"
            }
          ],
          "internalType": "struct CPRinstance.Proposal",
          "name": "",
          "type": "tuple"
        }
      ],
      "stateMutability": "view",
      "type": "function"
    },
    {
      "inputs": [],
      "name": "getRandomNumber",
      "outputs": [
        {
          "internalType": "bytes32",
          "name": "requestId",
          "type": "bytes32"
        }
      ],
      "stateMutability": "nonpayable",
      "type": "function"
    },
    {
      "inputs": [
        {
          "internalType": "address",
          "name": "spender",
          "type": "address"
        },
        {
          "internalType": "uint256",
          "name": "addedValue",
          "type": "uint256"
        }
      ],
      "name": "increaseAllowance",
      "outputs": [
        {
          "internalType": "bool",
          "name": "",
          "type": "bool"
        }
      ],
      "stateMutability": "nonpayable",
      "type": "function"
    },
    {
      "inputs": [
        {
          "internalType": "address",
          "name": "issuer",
          "type": "address"
        },
        {
          "internalType": "uint256",
          "name": "propID",
          "type": "uint256"
        },
        {
          "internalType": "uint256",
          "name": "yay",
          "type": "uint256"
        },
        {
          "internalType": "uint256",
          "name": "nay",
          "type": "uint256"
        },
        {
          "internalType": "uint256",
          "name": "voteSlash",
          "type": "uint256"
        },
        {
          "internalType": "bool",
          "name": "slash",
          "type": "bool"
        },
        {
          "internalType": "address[]",
          "name": "voted",
          "type": "address[]"
        },
        {
          "internalType": "address[]",
          "name": "voted2slash",
          "type": "address[]"
        }
      ],
      "name": "makeProposal",
      "outputs": [],
      "stateMutability": "payable",
      "type": "function"
    },
    {
      "inputs": [
        {
          "internalType": "address",
          "name": "to",
          "type": "address"
        },
        {
          "internalType": "uint256",
          "name": "amount",
          "type": "uint256"
        }
      ],
      "name": "mint",
      "outputs": [],
      "stateMutability": "payable",
      "type": "function"
    },
    {
      "inputs": [],
      "name": "name",
      "outputs": [
        {
          "internalType": "string",
          "name": "",
          "type": "string"
        }
      ],
      "stateMutability": "view",
      "type": "function"
    },
    {
      "inputs": [
        {
          "internalType": "address",
          "name": "issuer",
          "type": "address"
        },
        {
          "internalType": "uint256",
          "name": "issueID",
          "type": "uint256"
        },
        {
          "internalType": "bool",
          "name": "alarmLow",
          "type": "bool"
        },
        {
          "internalType": "bool",
          "name": "alarmHigh",
          "type": "bool"
        },
        {
          "internalType": "uint256",
          "name": "voteSlash",
          "type": "uint256"
        },
        {
          "internalType": "bool",
          "name": "slash",
          "type": "bool"
        },
        {
          "internalType": "address[]",
          "name": "voted2slash",
          "type": "address[]"
        }
      ],
      "name": "openIssue",
      "outputs": [],
      "stateMutability": "payable",
      "type": "function"
    },
    {
      "inputs": [],
      "name": "owner",
      "outputs": [
        {
          "internalType": "address",
          "name": "",
          "type": "address"
        }
      ],
      "stateMutability": "view",
      "type": "function"
    },
    {
      "inputs": [],
      "name": "randomResult",
      "outputs": [
        {
          "internalType": "uint256",
          "name": "",
          "type": "uint256"
        }
      ],
      "stateMutability": "view",
      "type": "function"
    },
    {
      "inputs": [
        {
          "internalType": "bytes32",
          "name": "requestId",
          "type": "bytes32"
        },
        {
          "internalType": "uint256",
          "name": "randomness",
          "type": "uint256"
        }
      ],
      "name": "rawFulfillRandomness",
      "outputs": [],
      "stateMutability": "nonpayable",
      "type": "function"
    },
    {
      "inputs": [
        {
          "internalType": "uint256",
          "name": "amount",
          "type": "uint256"
        }
      ],
      "name": "releaseAVAX",
      "outputs": [],
      "stateMutability": "payable",
      "type": "function"
    },
    {
      "inputs": [],
      "name": "releaseLink",
      "outputs": [],
      "stateMutability": "nonpayable",
      "type": "function"
    },
    {
      "inputs": [
        {
          "internalType": "address",
          "name": "benefactor",
          "type": "address"
        }
      ],
      "name": "removeBenefactor",
      "outputs": [
        {
          "internalType": "bool",
          "name": "",
          "type": "bool"
        }
      ],
      "stateMutability": "payable",
      "type": "function"
    },
    {
      "inputs": [
        {
          "internalType": "uint256",
          "name": "context",
          "type": "uint256"
        },
        {
          "internalType": "address",
          "name": "issuer",
          "type": "address"
        },
        {
          "internalType": "uint256",
          "name": "_ID",
          "type": "uint256"
        }
      ],
      "name": "removeIssueOrProp",
      "outputs": [],
      "stateMutability": "payable",
      "type": "function"
    },
    {
      "inputs": [],
      "name": "renounceOwnership",
      "outputs": [],
      "stateMutability": "nonpayable",
      "type": "function"
    },
    {
      "inputs": [
        {
          "internalType": "address",
          "name": "spender",
          "type": "address"
        },
        {
          "internalType": "uint256",
          "name": "addedValue",
          "type": "uint256"
        }
      ],
      "name": "setMyAllowance",
      "outputs": [],
      "stateMutability": "nonpayable",
      "type": "function"
    },
    {
      "inputs": [],
      "name": "symbol",
      "outputs": [
        {
          "internalType": "string",
          "name": "",
          "type": "string"
        }
      ],
      "stateMutability": "view",
      "type": "function"
    },
    {
      "inputs": [],
      "name": "totalSupply",
      "outputs": [
        {
          "internalType": "uint256",
          "name": "",
          "type": "uint256"
        }
      ],
      "stateMutability": "view",
      "type": "function"
    },
    {
      "inputs": [
        {
          "internalType": "address",
          "name": "recipient",
          "type": "address"
        },
        {
          "internalType": "uint256",
          "name": "amount",
          "type": "uint256"
        }
      ],
      "name": "transfer",
      "outputs": [
        {
          "internalType": "bool",
          "name": "",
          "type": "bool"
        }
      ],
      "stateMutability": "nonpayable",
      "type": "function"
    },
    {
      "inputs": [
        {
          "internalType": "address",
          "name": "sender",
          "type": "address"
        },
        {
          "internalType": "address",
          "name": "recipient",
          "type": "address"
        },
        {
          "internalType": "uint256",
          "name": "amount",
          "type": "uint256"
        }
      ],
      "name": "transferFrom",
      "outputs": [
        {
          "internalType": "bool",
          "name": "",
          "type": "bool"
        }
      ],
      "stateMutability": "nonpayable",
      "type": "function"
    },
    {
      "inputs": [
        {
          "internalType": "address",
          "name": "newOwner",
          "type": "address"
        }
      ],
      "name": "transferOwnership",
      "outputs": [],
      "stateMutability": "nonpayable",
      "type": "function"
    },
    {
      "inputs": [
        {
          "internalType": "uint256",
          "name": "context",
          "type": "uint256"
        },
        {
          "internalType": "address",
          "name": "issuer",
          "type": "address"
        },
        {
          "internalType": "uint256",
          "name": "_ID",
          "type": "uint256"
        },
        {
          "internalType": "bool",
          "name": "choice",
          "type": "bool"
        }
      ],
      "name": "vote",
      "outputs": [],
      "stateMutability": "payable",
      "type": "function"
    },
    {
      "stateMutability": "payable",
      "type": "receive"
    }
  ],
  "bytecode": "0x60c06040526040518060400160405280601a81526020017f436f6d6d6f6e20506f6f6c205265736f7572636520546f6b656e000000000000815250600790805190602001906200005192919062000469565b506040518060400160405280600481526020017f4350525400000000000000000000000000000000000000000000000000000000815250600890805190602001906200009f92919062000469565b506107d0600955348015620000b357600080fd5b5060405162006790380380620067908339818101604052810190620000d991906200066d565b73dd3782915140c8f3b190b5d67eac6dc5760c46e973a36085f69e2889c224210f603d836748e7dc00886007805462000112906200074a565b80601f016020809104026020016040519081016040528092919081815260200182805462000140906200074a565b8015620001915780601f10620001655761010080835404028352916020019162000191565b820191906000526020600020905b8154815290600101906020018083116200017357829003601f168201915b505050505060088054620001a5906200074a565b80601f0160208091040260200160405190810160405280929190818152602001828054620001d3906200074a565b8015620002245780601f10620001f85761010080835404028352916020019162000224565b820191906000526020600020905b8154815290600101906020018083116200020657829003601f168201915b505050505081600390805190602001906200024192919062000469565b5080600490805190602001906200025a92919062000469565b5050508173ffffffffffffffffffffffffffffffffffffffff1660a08173ffffffffffffffffffffffffffffffffffffffff1660601b815250508073ffffffffffffffffffffffffffffffffffffffff1660808173ffffffffffffffffffffffffffffffffffffffff1660601b815250505050620002ed620002e16200039b60201b60201c565b620003a360201b60201c565b735498bb86bc934c8d34fda08e81d444153d0d06ad600d60006101000a81548173ffffffffffffffffffffffffffffffffffffffff021916908373ffffffffffffffffffffffffffffffffffffffff16021790555080600a90805190602001906200035a929190620004fa565b507f6c3699283bda56ad74f6b855546325b68d482e983852a7a82979cc4807b641f460001b600e8190555067016345785d8a0000600f819055505062000853565b600033905090565b6000600660009054906101000a900473ffffffffffffffffffffffffffffffffffffffff16905081600660006101000a81548173ffffffffffffffffffffffffffffffffffffffff021916908373ffffffffffffffffffffffffffffffffffffffff1602179055508173ffffffffffffffffffffffffffffffffffffffff168173ffffffffffffffffffffffffffffffffffffffff167f8be0079c531659141344cd1fd0a4f28419497f9722a3daafe3b4186f6b6457e060405160405180910390a35050565b82805462000477906200074a565b90600052602060002090601f0160209004810192826200049b5760008555620004e7565b82601f10620004b657805160ff1916838001178555620004e7565b82800160010185558215620004e7579182015b82811115620004e6578251825591602001919060010190620004c9565b5b509050620004f6919062000589565b5090565b82805482825590600052602060002090810192821562000576579160200282015b82811115620005755782518260006101000a81548173ffffffffffffffffffffffffffffffffffffffff021916908373ffffffffffffffffffffffffffffffffffffffff160217905550916020019190600101906200051b565b5b50905062000585919062000589565b5090565b5b80821115620005a45760008160009055506001016200058a565b5090565b6000620005bf620005b984620006e7565b620006be565b90508083825260208201905082856020860282011115620005e557620005e462000819565b5b60005b85811015620006195781620005fe888262000623565b845260208401935060208301925050600181019050620005e8565b5050509392505050565b600081519050620006348162000839565b92915050565b600082601f83011262000652576200065162000814565b5b815162000664848260208601620005a8565b91505092915050565b60006020828403121562000686576200068562000823565b5b600082015167ffffffffffffffff811115620006a757620006a66200081e565b5b620006b5848285016200063a565b91505092915050565b6000620006ca620006dd565b9050620006d8828262000780565b919050565b6000604051905090565b600067ffffffffffffffff821115620007055762000704620007e5565b5b602082029050602081019050919050565b600062000723826200072a565b9050919050565b600073ffffffffffffffffffffffffffffffffffffffff82169050919050565b600060028204905060018216806200076357607f821691505b602082108114156200077a5762000779620007b6565b5b50919050565b6200078b8262000828565b810181811067ffffffffffffffff82111715620007ad57620007ac620007e5565b5b80604052505050565b7f4e487b7100000000000000000000000000000000000000000000000000000000600052602260045260246000fd5b7f4e487b7100000000000000000000000000000000000000000000000000000000600052604160045260246000fd5b600080fd5b600080fd5b600080fd5b600080fd5b6000601f19601f8301169050919050565b620008448162000716565b81146200085057600080fd5b50565b60805160601c60a05160601c615f036200088d6000396000818161174a0152613d34015260008181612d1b0152613cf80152615f036000f3fe6080604052600436106101fd5760003560e01c806394985ddd1161010d578063c57cb8fd116100a0578063dbdff2c11161006f578063dbdff2c1146106c5578063dd62ed3e146106f0578063e29219fa1461072d578063ede563be14610749578063f2fde38b1461078657610204565b8063c57cb8fd14610627578063cfa38da714610643578063d1a93d1814610680578063d4560bb91461069c57610204565b8063a9059cbb116100dc578063a9059cbb1461056e578063a98d22bc146105ab578063ab33b939146105db578063ab3b9aa91461060b57610204565b806394985ddd146104b457806395d89b41146104dd5780639dc29fac14610508578063a457c2d71461053157610204565b806340c10f1911610190578063715018a61161015f578063715018a61461040257806376a5e3c8146104195780637b6abc10146104355780638da5cb5b1461045e5780638e15f4731461048957610204565b806340c10f191461037457806342619f6614610390578063429e3846146103bb57806370a08231146103c557610204565b806323b872dd116101cc57806323b872dd146102b3578063313ce567146102f0578063395093511461031b5780633b5c62e01461035857610204565b806306fdde0314610209578063095ea7b31461023457806318160ddd146102715780631955e9671461029c57610204565b3661020457005b600080fd5b34801561021557600080fd5b5061021e6107af565b60405161022b9190614fd8565b60405180910390f35b34801561024057600080fd5b5061025b600480360381019061025691906144b3565b610841565b6040516102689190614f19565b60405180910390f35b34801561027d57600080fd5b5061028661085f565b604051610293919061529e565b60405180910390f35b3480156102a857600080fd5b506102b1610869565b005b3480156102bf57600080fd5b506102da60048036038101906102d59190614460565b61086b565b6040516102e79190614f19565b60405180910390f35b3480156102fc57600080fd5b50610305610963565b60405161031291906152b9565b60405180910390f35b34801561032757600080fd5b50610342600480360381019061033d91906144b3565b61096c565b60405161034f9190614f19565b60405180910390f35b610372600480360381019061036d919061470c565b610a18565b005b61038e600480360381019061038991906144b3565b610b47565b005b34801561039c57600080fd5b506103a5610be9565b6040516103b2919061529e565b60405180910390f35b6103c3610bef565b005b3480156103d157600080fd5b506103ec60048036038101906103e791906143f3565b610dac565b6040516103f9919061529e565b60405180910390f35b34801561040e57600080fd5b50610417610df4565b005b610433600480360381019061042e9190614766565b610e7c565b005b34801561044157600080fd5b5061045c600480360381019061045791906143f3565b6115ef565b005b34801561046a57600080fd5b5061047361166e565b6040516104809190614e97565b60405180910390f35b34801561049557600080fd5b5061049e611698565b6040516104ab9190614fbd565b60405180910390f35b3480156104c057600080fd5b506104db60048036038101906104d691906146cc565b611748565b005b3480156104e957600080fd5b506104f26117e4565b6040516104ff9190614fd8565b60405180910390f35b34801561051457600080fd5b5061052f600480360381019061052a91906144b3565b611876565b005b34801561053d57600080fd5b50610558600480360381019061055391906144b3565b611900565b6040516105659190614f19565b60405180910390f35b34801561057a57600080fd5b50610595600480360381019061059091906144b3565b6119eb565b6040516105a29190614f19565b60405180910390f35b6105c560048036038101906105c091906143f3565b611a09565b6040516105d29190614f19565b60405180910390f35b6105f560048036038101906105f091906143f3565b611c24565b6040516106029190614f19565b60405180910390f35b610625600480360381019061062091906144f3565b611daf565b005b610641600480360381019061063c91906147b9565b611e83565b005b34801561064f57600080fd5b5061066a600480360381019061066591906144b3565b6128fc565b604051610677919061527c565b60405180910390f35b61069a6004803603810190610695919061470c565b612b77565b005b3480156106a857600080fd5b506106c360048036038101906106be91906144b3565b612d05565b005b3480156106d157600080fd5b506106da612d14565b6040516106e79190614f34565b60405180910390f35b3480156106fc57600080fd5b5061071760048036038101906107129190614420565b612e16565b604051610724919061529e565b60405180910390f35b610747600480360381019061074291906145b1565b612e9d565b005b34801561075557600080fd5b50610770600480360381019061076b91906144b3565b612f75565b60405161077d919061525a565b60405180910390f35b34801561079257600080fd5b506107ad60048036038101906107a891906143f3565b613183565b005b6060600380546107be9061570f565b80601f01602080910402602001604051908101604052809291908181526020018280546107ea9061570f565b80156108375780601f1061080c57610100808354040283529160200191610837565b820191906000526020600020905b81548152906001019060200180831161081a57829003601f168201915b5050505050905090565b600061085561084e61327b565b8484613283565b6001905092915050565b6000600254905090565b565b600061087884848461344e565b6000600160008673ffffffffffffffffffffffffffffffffffffffff1673ffffffffffffffffffffffffffffffffffffffff16815260200190815260200160002060006108c361327b565b73ffffffffffffffffffffffffffffffffffffffff1673ffffffffffffffffffffffffffffffffffffffff16815260200190815260200160002054905082811015610943576040517f08c379a000000000000000000000000000000000000000000000000000000000815260040161093a9061511a565b60405180910390fd5b6109578561094f61327b565b858403613283565b60019150509392505050565b60006012905090565b6000610a0e61097961327b565b84846001600061098761327b565b73ffffffffffffffffffffffffffffffffffffffff1673ffffffffffffffffffffffffffffffffffffffff16815260200190815260200160002060008873ffffffffffffffffffffffffffffffffffffffff1673ffffffffffffffffffffffffffffffffffffffff16815260200190815260200160002054610a0991906153a1565b613283565b6001905092915050565b610a2061327b565b73ffffffffffffffffffffffffffffffffffffffff16610a3e61166e565b73ffffffffffffffffffffffffffffffffffffffff1614610a94576040517f08c379a0000000000000000000000000000000000000000000000000000000008152600401610a8b9061513a565b60405180910390fd5b6000803373ffffffffffffffffffffffffffffffffffffffff1683604051610abb90614e82565b60006040518083038185875af1925050503d8060008114610af8576040519150601f19603f3d011682016040523d82523d6000602084013e610afd565b606091505b509150915081610b42576040517f08c379a0000000000000000000000000000000000000000000000000000000008152600401610b399061507a565b60405180910390fd5b505050565b610b4f61327b565b73ffffffffffffffffffffffffffffffffffffffff16610b6d61166e565b73ffffffffffffffffffffffffffffffffffffffff1614610bc3576040517f08c379a0000000000000000000000000000000000000000000000000000000008152600401610bba9061513a565b60405180910390fd5b610be5826012600a610bd5919061547b565b83610be09190615599565b6136cf565b5050565b60105481565b610bf761327b565b73ffffffffffffffffffffffffffffffffffffffff16610c1561166e565b73ffffffffffffffffffffffffffffffffffffffff1614610c6b576040517f08c379a0000000000000000000000000000000000000000000000000000000008152600401610c629061513a565b60405180910390fd5b60005b600a80549050811215610d0a57610cf7600a8281548110610c9257610c91615903565b5b9060005260206000200160009054906101000a900473ffffffffffffffffffffffffffffffffffffffff166009546127106012600a610cd1919061547b565b6103e8610cde9190615599565b610ce891906153f7565b610cf29190615599565b6136cf565b8080610d0290615772565b915050610c6e565b50610d7e306009546127106012600a610d23919061547b565b6103e8610d309190615599565b610d3a91906153f7565b610d449190615599565b600a80549050610d549190615599565b6012600a610d62919061547b565b6103e8610d6f9190615599565b610d7991906155f3565b6136cf565b7f2a3eede7943df35c4cd9a8d6fe8bbcf8a89b97d631a92dd96f686e13404e570360405160405180910390a1565b60008060008373ffffffffffffffffffffffffffffffffffffffff1673ffffffffffffffffffffffffffffffffffffffff168152602001908152602001600020549050919050565b610dfc61327b565b73ffffffffffffffffffffffffffffffffffffffff16610e1a61166e565b73ffffffffffffffffffffffffffffffffffffffff1614610e70576040517f08c379a0000000000000000000000000000000000000000000000000000000008152600401610e679061513a565b60405180910390fd5b610e7a600061382f565b565b8173ffffffffffffffffffffffffffffffffffffffff163373ffffffffffffffffffffffffffffffffffffffff1614610eea576040517f08c379a0000000000000000000000000000000000000000000000000000000008152600401610ee1906151fa565b60405180910390fd5b8260006002811115610eff57610efe615876565b5b141561124f5760006001600c60008573ffffffffffffffffffffffffffffffffffffffff1673ffffffffffffffffffffffffffffffffffffffff16815260200190815260200160002080549050610f5691906155f3565b9050600c60008473ffffffffffffffffffffffffffffffffffffffff1673ffffffffffffffffffffffffffffffffffffffff1681526020019081526020016000208181548110610fa957610fa8615903565b5b9060005260206000209060080201600c60008573ffffffffffffffffffffffffffffffffffffffff1673ffffffffffffffffffffffffffffffffffffffff168152602001908152602001600020838154811061100857611007615903565b5b90600052602060002090600802016000820160009054906101000a900473ffffffffffffffffffffffffffffffffffffffff168160000160006101000a81548173ffffffffffffffffffffffffffffffffffffffff021916908373ffffffffffffffffffffffffffffffffffffffff160217905550600182015481600101556002820154816002015560038201548160030155600482015481600401556005820160009054906101000a900460ff168160050160006101000a81548160ff02191690831515021790555060068201816006019080546110e89291906140dd565b5060078201816007019080546110ff9291906140dd565b5090505081600c60008573ffffffffffffffffffffffffffffffffffffffff1673ffffffffffffffffffffffffffffffffffffffff168152602001908152602001600020838154811061115557611154615903565b5b906000526020600020906008020160010181905550600c60008473ffffffffffffffffffffffffffffffffffffffff1673ffffffffffffffffffffffffffffffffffffffff1681526020019081526020016000208054806111b9576111b86158d4565b5b6001900381819060005260206000209060080201600080820160006101000a81549073ffffffffffffffffffffffffffffffffffffffff021916905560018201600090556002820160009055600382016000905560048201600090556005820160006101000a81549060ff0219169055600682016000611239919061412f565b600782016000611249919061412f565b50509055505b8260028081111561126357611262615876565b5b14156115ea5760006001600b60008573ffffffffffffffffffffffffffffffffffffffff1673ffffffffffffffffffffffffffffffffffffffff168152602001908152602001600020805490506112ba91906155f3565b9050600b60008473ffffffffffffffffffffffffffffffffffffffff1673ffffffffffffffffffffffffffffffffffffffff168152602001908152602001600020818154811061130d5761130c615903565b5b9060005260206000209060060201600b60008573ffffffffffffffffffffffffffffffffffffffff1673ffffffffffffffffffffffffffffffffffffffff168152602001908152602001600020838154811061136c5761136b615903565b5b90600052602060002090600602016000820160009054906101000a900473ffffffffffffffffffffffffffffffffffffffff168160000160006101000a81548173ffffffffffffffffffffffffffffffffffffffff021916908373ffffffffffffffffffffffffffffffffffffffff160217905550600182015481600101556002820160009054906101000a900460ff168160020160006101000a81548160ff0219169083151502179055506002820160019054906101000a900460ff168160020160016101000a81548160ff021916908315150217905550600382015481600301556004820160009054906101000a900460ff168160040160006101000a81548160ff02191690831515021790555060058201816005019080546114929291906140dd565b5090505081600b60008573ffffffffffffffffffffffffffffffffffffffff1673ffffffffffffffffffffffffffffffffffffffff16815260200190815260200160002083815481106114e8576114e7615903565b5b906000526020600020906006020160010181905550600b60008473ffffffffffffffffffffffffffffffffffffffff1673ffffffffffffffffffffffffffffffffffffffff16815260200190815260200160002080548061154c5761154b6158d4565b5b6001900381819060005260206000209060060201600080820160006101000a81549073ffffffffffffffffffffffffffffffffffffffff021916905560018201600090556002820160006101000a81549060ff02191690556002820160016101000a81549060ff021916905560038201600090556004820160006101000a81549060ff02191690556005820160006115e4919061412f565b50509055505b505050565b6115f761327b565b73ffffffffffffffffffffffffffffffffffffffff1661161561166e565b73ffffffffffffffffffffffffffffffffffffffff161461166b576040517f08c379a00000000000000000000000000000000000000000000000000000000081526004016116629061513a565b60405180910390fd5b50565b6000600660009054906101000a900473ffffffffffffffffffffffffffffffffffffffff16905090565b600080600d60009054906101000a900473ffffffffffffffffffffffffffffffffffffffff1673ffffffffffffffffffffffffffffffffffffffff1663feaf968c6040518163ffffffff1660e01b815260040160a06040518083038186803b15801561170357600080fd5b505afa158015611717573d6000803e3d6000fd5b505050506040513d601f19601f8201168201806040525081019061173b9190614820565b5050509150508091505090565b7f000000000000000000000000000000000000000000000000000000000000000073ffffffffffffffffffffffffffffffffffffffff163373ffffffffffffffffffffffffffffffffffffffff16146117d6576040517f08c379a00000000000000000000000000000000000000000000000000000000081526004016117cd9061515a565b60405180910390fd5b6117e082826138f5565b5050565b6060600480546117f39061570f565b80601f016020809104026020016040519081016040528092919081815260200182805461181f9061570f565b801561186c5780601f106118415761010080835404028352916020019161186c565b820191906000526020600020905b81548152906001019060200180831161184f57829003601f168201915b5050505050905090565b61187e61327b565b73ffffffffffffffffffffffffffffffffffffffff1661189c61166e565b73ffffffffffffffffffffffffffffffffffffffff16146118f2576040517f08c379a00000000000000000000000000000000000000000000000000000000081526004016118e99061513a565b60405180910390fd5b6118fc8282613900565b5050565b6000806001600061190f61327b565b73ffffffffffffffffffffffffffffffffffffffff1673ffffffffffffffffffffffffffffffffffffffff16815260200190815260200160002060008573ffffffffffffffffffffffffffffffffffffffff1673ffffffffffffffffffffffffffffffffffffffff168152602001908152602001600020549050828110156119cc576040517f08c379a00000000000000000000000000000000000000000000000000000000081526004016119c3906151da565b60405180910390fd5b6119e06119d761327b565b85858403613283565b600191505092915050565b60006119ff6119f861327b565b848461344e565b6001905092915050565b6000611a1361327b565b73ffffffffffffffffffffffffffffffffffffffff16611a3161166e565b73ffffffffffffffffffffffffffffffffffffffff1614611a87576040517f08c379a0000000000000000000000000000000000000000000000000000000008152600401611a7e9061513a565b60405180910390fd5b60005b600a80549050811215611c19578273ffffffffffffffffffffffffffffffffffffffff16600a8281548110611ac257611ac1615903565b5b9060005260206000200160009054906101000a900473ffffffffffffffffffffffffffffffffffffffff1673ffffffffffffffffffffffffffffffffffffffff161415611c0657600a6001600a80549050611b1d91906155f3565b81548110611b2e57611b2d615903565b5b9060005260206000200160009054906101000a900473ffffffffffffffffffffffffffffffffffffffff16600a8281548110611b6d57611b6c615903565b5b9060005260206000200160006101000a81548173ffffffffffffffffffffffffffffffffffffffff021916908373ffffffffffffffffffffffffffffffffffffffff160217905550600a805480611bc757611bc66158d4565b5b6001900381819060005260206000200160006101000a81549073ffffffffffffffffffffffffffffffffffffffff021916905590556001915050611c1f565b8080611c1190615772565b915050611a8a565b50600090505b919050565b6000611c2e61327b565b73ffffffffffffffffffffffffffffffffffffffff16611c4c61166e565b73ffffffffffffffffffffffffffffffffffffffff1614611ca2576040517f08c379a0000000000000000000000000000000000000000000000000000000008152600401611c999061513a565b60405180910390fd5b60005b600a80549050811215611d41578273ffffffffffffffffffffffffffffffffffffffff16600a8281548110611cdd57611cdc615903565b5b9060005260206000200160009054906101000a900473ffffffffffffffffffffffffffffffffffffffff1673ffffffffffffffffffffffffffffffffffffffff161415611d2e576000915050611daa565b8080611d3990615772565b915050611ca5565b50600a829080600181540180825580915050600190039060005260206000200160009091909190916101000a81548173ffffffffffffffffffffffffffffffffffffffff021916908373ffffffffffffffffffffffffffffffffffffffff160217905550600090505b919050565b3373ffffffffffffffffffffffffffffffffffffffff168773ffffffffffffffffffffffffffffffffffffffff1614611e1d576040517f08c379a0000000000000000000000000000000000000000000000000000000008152600401611e14906151fa565b60405180910390fd5b60006040518060e001604052808973ffffffffffffffffffffffffffffffffffffffff168152602001888152602001871515815260200186151581526020018581526020018415158152602001838152509050611e7981613ad7565b5050505050505050565b8360006002811115611e9857611e97615876565b5b14156122d5576000805b600c60008673ffffffffffffffffffffffffffffffffffffffff1673ffffffffffffffffffffffffffffffffffffffff1681526020019081526020016000208481548110611ef357611ef2615903565b5b906000526020600020906008020160060180549050811215611ff9573373ffffffffffffffffffffffffffffffffffffffff16600c60008773ffffffffffffffffffffffffffffffffffffffff1673ffffffffffffffffffffffffffffffffffffffff1681526020019081526020016000208581548110611f7757611f76615903565b5b90600052602060002090600802016006018281548110611f9a57611f99615903565b5b9060005260206000200160009054906101000a900473ffffffffffffffffffffffffffffffffffffffff1673ffffffffffffffffffffffffffffffffffffffff161415611fe657600191505b8080611ff190615772565b915050611ea2565b506000151581151514612041576040517f08c379a00000000000000000000000000000000000000000000000000000000081526004016120389061509a565b60405180910390fd5b60011515821515141561218a57600c60008573ffffffffffffffffffffffffffffffffffffffff1673ffffffffffffffffffffffffffffffffffffffff168152602001908152602001600020838154811061209f5761209e615903565b5b906000526020600020906008020160020160008154809291906120c1906157bb565b9190505550600c60008573ffffffffffffffffffffffffffffffffffffffff1673ffffffffffffffffffffffffffffffffffffffff168152602001908152602001600020838154811061211757612116615903565b5b9060005260206000209060080201600601339080600181540180825580915050600190039060005260206000200160009091909190916101000a81548173ffffffffffffffffffffffffffffffffffffffff021916908373ffffffffffffffffffffffffffffffffffffffff1602179055505b6000151582151514156122d357600c60008573ffffffffffffffffffffffffffffffffffffffff1673ffffffffffffffffffffffffffffffffffffffff16815260200190815260200160002083815481106121e8576121e7615903565b5b9060005260206000209060080201600301600081548092919061220a906157bb565b9190505550600c60008573ffffffffffffffffffffffffffffffffffffffff1673ffffffffffffffffffffffffffffffffffffffff16815260200190815260200160002083815481106122605761225f615903565b5b9060005260206000209060080201600601339080600181540180825580915050600190039060005260206000200160009091909190916101000a81548173ffffffffffffffffffffffffffffffffffffffff021916908373ffffffffffffffffffffffffffffffffffffffff1602179055505b505b83600160028111156122ea576122e9615876565b5b14156125d0576000805b600c60008673ffffffffffffffffffffffffffffffffffffffff1673ffffffffffffffffffffffffffffffffffffffff168152602001908152602001600020848154811061234557612344615903565b5b90600052602060002090600802016007018054905081121561244b573373ffffffffffffffffffffffffffffffffffffffff16600c60008773ffffffffffffffffffffffffffffffffffffffff1673ffffffffffffffffffffffffffffffffffffffff16815260200190815260200160002085815481106123c9576123c8615903565b5b906000526020600020906008020160070182815481106123ec576123eb615903565b5b9060005260206000200160009054906101000a900473ffffffffffffffffffffffffffffffffffffffff1673ffffffffffffffffffffffffffffffffffffffff16141561243857600191505b808061244390615772565b9150506122f4565b506000151581151514612493576040517f08c379a000000000000000000000000000000000000000000000000000000000815260040161248a9061509a565b60405180910390fd5b600c60008573ffffffffffffffffffffffffffffffffffffffff1673ffffffffffffffffffffffffffffffffffffffff16815260200190815260200160002083815481106124e4576124e3615903565b5b90600052602060002090600802016004016000815480929190612506906157bb565b9190505550600c60008573ffffffffffffffffffffffffffffffffffffffff1673ffffffffffffffffffffffffffffffffffffffff168152602001908152602001600020838154811061255c5761255b615903565b5b9060005260206000209060080201600701339080600181540180825580915050600190039060005260206000200160009091909190916101000a81548173ffffffffffffffffffffffffffffffffffffffff021916908373ffffffffffffffffffffffffffffffffffffffff160217905550505b836002808111156125e4576125e3615876565b5b14156128ca576000805b600b60008673ffffffffffffffffffffffffffffffffffffffff1673ffffffffffffffffffffffffffffffffffffffff168152602001908152602001600020848154811061263f5761263e615903565b5b906000526020600020906006020160050180549050811215612745573373ffffffffffffffffffffffffffffffffffffffff16600b60008773ffffffffffffffffffffffffffffffffffffffff1673ffffffffffffffffffffffffffffffffffffffff16815260200190815260200160002085815481106126c3576126c2615903565b5b906000526020600020906006020160050182815481106126e6576126e5615903565b5b9060005260206000200160009054906101000a900473ffffffffffffffffffffffffffffffffffffffff1673ffffffffffffffffffffffffffffffffffffffff16141561273257600191505b808061273d90615772565b9150506125ee565b50600015158115151461278d576040517f08c379a00000000000000000000000000000000000000000000000000000000081526004016127849061509a565b60405180910390fd5b600b60008573ffffffffffffffffffffffffffffffffffffffff1673ffffffffffffffffffffffffffffffffffffffff16815260200190815260200160002083815481106127de576127dd615903565b5b90600052602060002090600602016003016000815480929190612800906157bb565b9190505550600b60008573ffffffffffffffffffffffffffffffffffffffff1673ffffffffffffffffffffffffffffffffffffffff168152602001908152602001600020838154811061285657612855615903565b5b9060005260206000209060060201600501339080600181540180825580915050600190039060005260206000200160009091909190916101000a81548173ffffffffffffffffffffffffffffffffffffffff021916908373ffffffffffffffffffffffffffffffffffffffff160217905550505b7f650d798f3862ff92822acb5de11a760351b122df0cf4e24ef80b0a7ff82e0eb960405160405180910390a150505050565b612904614150565b6000600c60008573ffffffffffffffffffffffffffffffffffffffff1673ffffffffffffffffffffffffffffffffffffffff168152602001908152602001600020805480602002602001604051908101604052809291908181526020016000905b82821015612b4d5783829060005260206000209060080201604051806101000160405290816000820160009054906101000a900473ffffffffffffffffffffffffffffffffffffffff1673ffffffffffffffffffffffffffffffffffffffff1673ffffffffffffffffffffffffffffffffffffffff168152602001600182015481526020016002820154815260200160038201548152602001600482015481526020016005820160009054906101000a900460ff1615151515815260200160068201805480602002602001604051908101604052809291908181526020018280548015612aa757602002820191906000526020600020905b8160009054906101000a900473ffffffffffffffffffffffffffffffffffffffff1673ffffffffffffffffffffffffffffffffffffffff1681526020019060010190808311612a5d575b5050505050815260200160078201805480602002602001604051908101604052809291908181526020018280548015612b3557602002820191906000526020600020905b8160009054906101000a900473ffffffffffffffffffffffffffffffffffffffff1673ffffffffffffffffffffffffffffffffffffffff1681526020019060010190808311612aeb575b50505050508152505081526020019060010190612965565b505050509050808381518110612b6657612b65615903565b5b602002602001015191505092915050565b6012600a612b85919061547b565b600182612b929190615599565b612b9c9190615599565b3414612bdd576040517f08c379a0000000000000000000000000000000000000000000000000000000008152600401612bd4906150ba565b60405180910390fd5b670de0b6b3a7640000612bef30610dac565b1015612c30576040517f08c379a0000000000000000000000000000000000000000000000000000000008152600401612c279061523a565b60405180910390fd5b3073ffffffffffffffffffffffffffffffffffffffff1663a9059cbb336012600a612c5b919061547b565b84612c669190615599565b6040518363ffffffff1660e01b8152600401612c83929190614eb2565b602060405180830381600087803b158015612c9d57600080fd5b505af1158015612cb1573d6000803e3d6000fd5b505050506040513d601f19601f82011682018060405250810190612cd5919061469f565b507fa2f2e4879af455e26ab45ce1f41b4f7449343f406894a6f1c49619cfc214e8d460405160405180910390a150565b612d0f828261096c565b505050565b6000600f547f000000000000000000000000000000000000000000000000000000000000000073ffffffffffffffffffffffffffffffffffffffff166370a08231306040518263ffffffff1660e01b8152600401612d729190614e97565b60206040518083038186803b158015612d8a57600080fd5b505afa158015612d9e573d6000803e3d6000fd5b505050506040513d601f19601f82011682018060405250810190612dc29190614739565b1015612e03576040517f08c379a0000000000000000000000000000000000000000000000000000000008152600401612dfa906150fa565b60405180910390fd5b612e11600e54600f54613cf4565b905090565b6000600160008473ffffffffffffffffffffffffffffffffffffffff1673ffffffffffffffffffffffffffffffffffffffff16815260200190815260200160002060008373ffffffffffffffffffffffffffffffffffffffff1673ffffffffffffffffffffffffffffffffffffffff16815260200190815260200160002054905092915050565b3373ffffffffffffffffffffffffffffffffffffffff168873ffffffffffffffffffffffffffffffffffffffff1614612f0b576040517f08c379a0000000000000000000000000000000000000000000000000000000008152600401612f02906151fa565b60405180910390fd5b60006040518061010001604052808a73ffffffffffffffffffffffffffffffffffffffff1681526020018981526020018881526020018781526020018681526020018515158152602001848152602001838152509050612f6a81613e56565b505050505050505050565b612f7d6141ad565b6000600b60008573ffffffffffffffffffffffffffffffffffffffff1673ffffffffffffffffffffffffffffffffffffffff168152602001908152602001600020805480602002602001604051908101604052809291908181526020016000905b8282101561315957838290600052602060002090600602016040518060e00160405290816000820160009054906101000a900473ffffffffffffffffffffffffffffffffffffffff1673ffffffffffffffffffffffffffffffffffffffff1673ffffffffffffffffffffffffffffffffffffffff168152602001600182015481526020016002820160009054906101000a900460ff161515151581526020016002820160019054906101000a900460ff16151515158152602001600382015481526020016004820160009054906101000a900460ff161515151581526020016005820180548060200260200160405190810160405280929190818152602001828054801561314157602002820191906000526020600020905b8160009054906101000a900473ffffffffffffffffffffffffffffffffffffffff1673ffffffffffffffffffffffffffffffffffffffff16815260200190600101908083116130f7575b50505050508152505081526020019060010190612fde565b50505050905080838151811061317257613171615903565b5b602002602001015191505092915050565b61318b61327b565b73ffffffffffffffffffffffffffffffffffffffff166131a961166e565b73ffffffffffffffffffffffffffffffffffffffff16146131ff576040517f08c379a00000000000000000000000000000000000000000000000000000000081526004016131f69061513a565b60405180910390fd5b600073ffffffffffffffffffffffffffffffffffffffff168173ffffffffffffffffffffffffffffffffffffffff16141561326f576040517f08c379a00000000000000000000000000000000000000000000000000000000081526004016132669061503a565b60405180910390fd5b6132788161382f565b50565b600033905090565b600073ffffffffffffffffffffffffffffffffffffffff168373ffffffffffffffffffffffffffffffffffffffff1614156132f3576040517f08c379a00000000000000000000000000000000000000000000000000000000081526004016132ea906151ba565b60405180910390fd5b600073ffffffffffffffffffffffffffffffffffffffff168273ffffffffffffffffffffffffffffffffffffffff161415613363576040517f08c379a000000000000000000000000000000000000000000000000000000000815260040161335a9061505a565b60405180910390fd5b80600160008573ffffffffffffffffffffffffffffffffffffffff1673ffffffffffffffffffffffffffffffffffffffff16815260200190815260200160002060008473ffffffffffffffffffffffffffffffffffffffff1673ffffffffffffffffffffffffffffffffffffffff168152602001908152602001600020819055508173ffffffffffffffffffffffffffffffffffffffff168373ffffffffffffffffffffffffffffffffffffffff167f8c5be1e5ebec7d5bd14f71427d1e84f3dd0314c0f7b2291e5b200ac8c7c3b92583604051613441919061529e565b60405180910390a3505050565b600073ffffffffffffffffffffffffffffffffffffffff168373ffffffffffffffffffffffffffffffffffffffff1614156134be576040517f08c379a00000000000000000000000000000000000000000000000000000000081526004016134b59061519a565b60405180910390fd5b600073ffffffffffffffffffffffffffffffffffffffff168273ffffffffffffffffffffffffffffffffffffffff16141561352e576040517f08c379a000000000000000000000000000000000000000000000000000000000815260040161352590614ffa565b60405180910390fd5b613539838383614064565b60008060008573ffffffffffffffffffffffffffffffffffffffff1673ffffffffffffffffffffffffffffffffffffffff168152602001908152602001600020549050818110156135bf576040517f08c379a00000000000000000000000000000000000000000000000000000000081526004016135b6906150da565b60405180910390fd5b8181036000808673ffffffffffffffffffffffffffffffffffffffff1673ffffffffffffffffffffffffffffffffffffffff16815260200190815260200160002081905550816000808573ffffffffffffffffffffffffffffffffffffffff1673ffffffffffffffffffffffffffffffffffffffff168152602001908152602001600020600082825461365291906153a1565b925050819055508273ffffffffffffffffffffffffffffffffffffffff168473ffffffffffffffffffffffffffffffffffffffff167fddf252ad1be2c89b69c2b068fc378daa952ba7f163c4a11628f55a4df523b3ef846040516136b6919061529e565b60405180910390a36136c9848484614069565b50505050565b600073ffffffffffffffffffffffffffffffffffffffff168273ffffffffffffffffffffffffffffffffffffffff16141561373f576040517f08c379a00000000000000000000000000000000000000000000000000000000081526004016137369061521a565b60405180910390fd5b61374b60008383614064565b806002600082825461375d91906153a1565b92505081905550806000808473ffffffffffffffffffffffffffffffffffffffff1673ffffffffffffffffffffffffffffffffffffffff16815260200190815260200160002060008282546137b291906153a1565b925050819055508173ffffffffffffffffffffffffffffffffffffffff16600073ffffffffffffffffffffffffffffffffffffffff167fddf252ad1be2c89b69c2b068fc378daa952ba7f163c4a11628f55a4df523b3ef83604051613817919061529e565b60405180910390a361382b60008383614069565b5050565b6000600660009054906101000a900473ffffffffffffffffffffffffffffffffffffffff16905081600660006101000a81548173ffffffffffffffffffffffffffffffffffffffff021916908373ffffffffffffffffffffffffffffffffffffffff1602179055508173ffffffffffffffffffffffffffffffffffffffff168173ffffffffffffffffffffffffffffffffffffffff167f8be0079c531659141344cd1fd0a4f28419497f9722a3daafe3b4186f6b6457e060405160405180910390a35050565b806010819055505050565b600073ffffffffffffffffffffffffffffffffffffffff168273ffffffffffffffffffffffffffffffffffffffff161415613970576040517f08c379a00000000000000000000000000000000000000000000000000000000081526004016139679061517a565b60405180910390fd5b61397c82600083614064565b60008060008473ffffffffffffffffffffffffffffffffffffffff1673ffffffffffffffffffffffffffffffffffffffff16815260200190815260200160002054905081811015613a02576040517f08c379a00000000000000000000000000000000000000000000000000000000081526004016139f99061501a565b60405180910390fd5b8181036000808573ffffffffffffffffffffffffffffffffffffffff1673ffffffffffffffffffffffffffffffffffffffff168152602001908152602001600020819055508160026000828254613a5991906155f3565b92505081905550600073ffffffffffffffffffffffffffffffffffffffff168373ffffffffffffffffffffffffffffffffffffffff167fddf252ad1be2c89b69c2b068fc378daa952ba7f163c4a11628f55a4df523b3ef84604051613abe919061529e565b60405180910390a3613ad283600084614069565b505050565b600b6000826000015173ffffffffffffffffffffffffffffffffffffffff1673ffffffffffffffffffffffffffffffffffffffff1681526020019081526020016000208054905081602001818152505080600001518160c00151600081518110613b4457613b43615903565b5b602002602001019073ffffffffffffffffffffffffffffffffffffffff16908173ffffffffffffffffffffffffffffffffffffffff1681525050600b6000826000015173ffffffffffffffffffffffffffffffffffffffff1673ffffffffffffffffffffffffffffffffffffffff16815260200190815260200160002081908060018154018082558091505060019003906000526020600020906006020160009091909190915060008201518160000160006101000a81548173ffffffffffffffffffffffffffffffffffffffff021916908373ffffffffffffffffffffffffffffffffffffffff1602179055506020820151816001015560408201518160020160006101000a81548160ff02191690831515021790555060608201518160020160016101000a81548160ff0219169083151502179055506080820151816003015560a08201518160040160006101000a81548160ff02191690831515021790555060c0820151816005019080519060200190613cc2929190614206565b5050507fbad75398140c2d8a5c1e9d3739f26cd92a1d0c6c034155e2068c40e3f799982660405160405180910390a150565b60007f000000000000000000000000000000000000000000000000000000000000000073ffffffffffffffffffffffffffffffffffffffff16634000aea07f000000000000000000000000000000000000000000000000000000000000000084866000604051602001613d68929190614f4f565b6040516020818303038152906040526040518463ffffffff1660e01b8152600401613d9593929190614edb565b602060405180830381600087803b158015613daf57600080fd5b505af1158015613dc3573d6000803e3d6000fd5b505050506040513d601f19601f82011682018060405250810190613de7919061469f565b506000613e0a84600030600560008981526020019081526020016000205461406e565b905060016005600086815260200190815260200160002054613e2c91906153a1565b6005600086815260200190815260200160002081905550613e4d84826140aa565b91505092915050565b600c6000826000015173ffffffffffffffffffffffffffffffffffffffff1673ffffffffffffffffffffffffffffffffffffffff1681526020019081526020016000208054905081602001818152505080600001518160c00151600081518110613ec357613ec2615903565b5b602002602001019073ffffffffffffffffffffffffffffffffffffffff16908173ffffffffffffffffffffffffffffffffffffffff1681525050600c6000826000015173ffffffffffffffffffffffffffffffffffffffff1673ffffffffffffffffffffffffffffffffffffffff16815260200190815260200160002081908060018154018082558091505060019003906000526020600020906008020160009091909190915060008201518160000160006101000a81548173ffffffffffffffffffffffffffffffffffffffff021916908373ffffffffffffffffffffffffffffffffffffffff1602179055506020820151816001015560408201518160020155606082015181600301556080820151816004015560a08201518160050160006101000a81548160ff02191690831515021790555060c0820151816006019080519060200190614015929190614206565b5060e0820151816007019080519060200190614032929190614206565b5050507fbf1566926885ff6af09c7c4cd1e42e440654be490bd958be20e3d8b5a81d58f260405160405180910390a150565b505050565b505050565b6000848484846040516020016140879493929190614f78565b6040516020818303038152906040528051906020012060001c9050949350505050565b600082826040516020016140bf929190614e56565b60405160208183030381529060405280519060200120905092915050565b82805482825590600052602060002090810192821561411e5760005260206000209182015b8281111561411d578254825591600101919060010190614102565b5b50905061412b9190614290565b5090565b508054600082559060005260206000209081019061414d9190614290565b50565b604051806101000160405280600073ffffffffffffffffffffffffffffffffffffffff1681526020016000815260200160008152602001600081526020016000815260200160001515815260200160608152602001606081525090565b6040518060e00160405280600073ffffffffffffffffffffffffffffffffffffffff1681526020016000815260200160001515815260200160001515815260200160008152602001600015158152602001606081525090565b82805482825590600052602060002090810192821561427f579160200282015b8281111561427e5782518260006101000a81548173ffffffffffffffffffffffffffffffffffffffff021916908373ffffffffffffffffffffffffffffffffffffffff16021790555091602001919060010190614226565b5b50905061428c9190614290565b5090565b5b808211156142a9576000816000905550600101614291565b5090565b60006142c06142bb846152f9565b6152d4565b905080838252602082019050828560208602820111156142e3576142e2615966565b5b60005b8581101561431357816142f9888261431d565b8452602084019350602083019250506001810190506142e6565b5050509392505050565b60008135905061432c81615e43565b92915050565b600082601f83011261434757614346615961565b5b81356143578482602086016142ad565b91505092915050565b60008135905061436f81615e5a565b92915050565b60008151905061438481615e5a565b92915050565b60008135905061439981615e71565b92915050565b6000815190506143ae81615e88565b92915050565b6000813590506143c381615e9f565b92915050565b6000815190506143d881615e9f565b92915050565b6000815190506143ed81615eb6565b92915050565b60006020828403121561440957614408615970565b5b60006144178482850161431d565b91505092915050565b6000806040838503121561443757614436615970565b5b60006144458582860161431d565b92505060206144568582860161431d565b9150509250929050565b60008060006060848603121561447957614478615970565b5b60006144878682870161431d565b93505060206144988682870161431d565b92505060406144a9868287016143b4565b9150509250925092565b600080604083850312156144ca576144c9615970565b5b60006144d88582860161431d565b92505060206144e9858286016143b4565b9150509250929050565b600080600080600080600060e0888a03121561451257614511615970565b5b60006145208a828b0161431d565b97505060206145318a828b016143b4565b96505060406145428a828b01614360565b95505060606145538a828b01614360565b94505060806145648a828b016143b4565b93505060a06145758a828b01614360565b92505060c088013567ffffffffffffffff8111156145965761459561596b565b5b6145a28a828b01614332565b91505092959891949750929550565b600080600080600080600080610100898b0312156145d2576145d1615970565b5b60006145e08b828c0161431d565b98505060206145f18b828c016143b4565b97505060406146028b828c016143b4565b96505060606146138b828c016143b4565b95505060806146248b828c016143b4565b94505060a06146358b828c01614360565b93505060c089013567ffffffffffffffff8111156146565761465561596b565b5b6146628b828c01614332565b92505060e089013567ffffffffffffffff8111156146835761468261596b565b5b61468f8b828c01614332565b9150509295985092959890939650565b6000602082840312156146b5576146b4615970565b5b60006146c384828501614375565b91505092915050565b600080604083850312156146e3576146e2615970565b5b60006146f18582860161438a565b9250506020614702858286016143b4565b9150509250929050565b60006020828403121561472257614721615970565b5b6000614730848285016143b4565b91505092915050565b60006020828403121561474f5761474e615970565b5b600061475d848285016143c9565b91505092915050565b60008060006060848603121561477f5761477e615970565b5b600061478d868287016143b4565b935050602061479e8682870161431d565b92505060406147af868287016143b4565b9150509250925092565b600080600080608085870312156147d3576147d2615970565b5b60006147e1878288016143b4565b94505060206147f28782880161431d565b9350506040614803878288016143b4565b925050606061481487828801614360565b91505092959194509250565b600080600080600060a0868803121561483c5761483b615970565b5b600061484a888289016143de565b955050602061485b8882890161439f565b945050604061486c888289016143c9565b935050606061487d888289016143c9565b925050608061488e888289016143de565b9150509295509295909350565b60006148a783836148c2565b60208301905092915050565b6148bc816156a6565b82525050565b6148cb81615627565b82525050565b6148da81615627565b82525050565b60006148eb82615335565b6148f58185615363565b935061490083615325565b8060005b83811015614931578151614918888261489b565b975061492383615356565b925050600181019050614904565b5085935050505092915050565b61494781615639565b82525050565b61495681615639565b82525050565b61496581615645565b82525050565b61497c61497782615645565b615804565b82525050565b600061498d82615340565b6149978185615374565b93506149a78185602086016156dc565b6149b081615975565b840191505092915050565b6149c48161564f565b82525050565b60006149d58261534b565b6149df8185615390565b93506149ef8185602086016156dc565b6149f881615975565b840191505092915050565b6000614a10602383615390565b9150614a1b82615993565b604082019050919050565b6000614a33602283615390565b9150614a3e826159e2565b604082019050919050565b6000614a56602683615390565b9150614a6182615a31565b604082019050919050565b6000614a79602283615390565b9150614a8482615a80565b604082019050919050565b6000614a9c601783615390565b9150614aa782615acf565b602082019050919050565b6000614abf600d83615390565b9150614aca82615af8565b602082019050919050565b6000614ae2601083615390565b9150614aed82615b21565b602082019050919050565b6000614b05602683615390565b9150614b1082615b4a565b604082019050919050565b6000614b28602b83615390565b9150614b3382615b99565b604082019050919050565b6000614b4b602883615390565b9150614b5682615be8565b604082019050919050565b6000614b6e602083615390565b9150614b7982615c37565b602082019050919050565b6000614b91601f83615390565b9150614b9c82615c60565b602082019050919050565b6000614bb4602183615390565b9150614bbf82615c89565b604082019050919050565b6000614bd7602583615390565b9150614be282615cd8565b604082019050919050565b6000614bfa600083615385565b9150614c0582615d27565b600082019050919050565b6000614c1d602483615390565b9150614c2882615d2a565b604082019050919050565b6000614c40602583615390565b9150614c4b82615d79565b604082019050919050565b6000614c63600e83615390565b9150614c6e82615dc8565b602082019050919050565b6000614c86601f83615390565b9150614c9182615df1565b602082019050919050565b6000614ca9601683615390565b9150614cb482615e1a565b602082019050919050565b600060e083016000830151614cd760008601826148c2565b506020830151614cea6020860182614e12565b506040830151614cfd604086018261493e565b506060830151614d10606086018261493e565b506080830151614d236080860182614e12565b5060a0830151614d3660a086018261493e565b5060c083015184820360c0860152614d4e82826148e0565b9150508091505092915050565b600061010083016000830151614d7460008601826148c2565b506020830151614d876020860182614e12565b506040830151614d9a6040860182614e12565b506060830151614dad6060860182614e12565b506080830151614dc06080860182614e12565b5060a0830151614dd360a086018261493e565b5060c083015184820360c0860152614deb82826148e0565b91505060e083015184820360e0860152614e0582826148e0565b9150508091505092915050565b614e1b81615679565b82525050565b614e2a81615679565b82525050565b614e41614e3c82615679565b61580e565b82525050565b614e5081615683565b82525050565b6000614e62828561496b565b602082019150614e728284614e30565b6020820191508190509392505050565b6000614e8d82614bed565b9150819050919050565b6000602082019050614eac60008301846148d1565b92915050565b6000604082019050614ec760008301856148b3565b614ed46020830184614e21565b9392505050565b6000606082019050614ef060008301866148d1565b614efd6020830185614e21565b8181036040830152614f0f8184614982565b9050949350505050565b6000602082019050614f2e600083018461494d565b92915050565b6000602082019050614f49600083018461495c565b92915050565b6000604082019050614f64600083018561495c565b614f716020830184614e21565b9392505050565b6000608082019050614f8d600083018761495c565b614f9a6020830186614e21565b614fa760408301856148d1565b614fb46060830184614e21565b95945050505050565b6000602082019050614fd260008301846149bb565b92915050565b60006020820190508181036000830152614ff281846149ca565b905092915050565b6000602082019050818103600083015261501381614a03565b9050919050565b6000602082019050818103600083015261503381614a26565b9050919050565b6000602082019050818103600083015261505381614a49565b9050919050565b6000602082019050818103600083015261507381614a6c565b9050919050565b6000602082019050818103600083015261509381614a8f565b9050919050565b600060208201905081810360008301526150b381614ab2565b9050919050565b600060208201905081810360008301526150d381614ad5565b9050919050565b600060208201905081810360008301526150f381614af8565b9050919050565b6000602082019050818103600083015261511381614b1b565b9050919050565b6000602082019050818103600083015261513381614b3e565b9050919050565b6000602082019050818103600083015261515381614b61565b9050919050565b6000602082019050818103600083015261517381614b84565b9050919050565b6000602082019050818103600083015261519381614ba7565b9050919050565b600060208201905081810360008301526151b381614bca565b9050919050565b600060208201905081810360008301526151d381614c10565b9050919050565b600060208201905081810360008301526151f381614c33565b9050919050565b6000602082019050818103600083015261521381614c56565b9050919050565b6000602082019050818103600083015261523381614c79565b9050919050565b6000602082019050818103600083015261525381614c9c565b9050919050565b600060208201905081810360008301526152748184614cbf565b905092915050565b600060208201905081810360008301526152968184614d5b565b905092915050565b60006020820190506152b36000830184614e21565b92915050565b60006020820190506152ce6000830184614e47565b92915050565b60006152de6152ef565b90506152ea8282615741565b919050565b6000604051905090565b600067ffffffffffffffff82111561531457615313615932565b5b602082029050602081019050919050565b6000819050602082019050919050565b600081519050919050565b600081519050919050565b600081519050919050565b6000602082019050919050565b600082825260208201905092915050565b600082825260208201905092915050565b600081905092915050565b600082825260208201905092915050565b60006153ac82615679565b91506153b783615679565b9250827fffffffffffffffffffffffffffffffffffffffffffffffffffffffffffffffff038211156153ec576153eb615818565b5b828201905092915050565b600061540282615679565b915061540d83615679565b92508261541d5761541c615847565b5b828204905092915050565b6000808291508390505b60018511156154725780860481111561544e5761544d615818565b5b600185161561545d5780820291505b808102905061546b85615986565b9450615432565b94509492505050565b600061548682615679565b915061549183615683565b92506154be7fffffffffffffffffffffffffffffffffffffffffffffffffffffffffffffffff84846154c6565b905092915050565b6000826154d65760019050615592565b816154e45760009050615592565b81600181146154fa576002811461550457615533565b6001915050615592565b60ff84111561551657615515615818565b5b8360020a91508482111561552d5761552c615818565b5b50615592565b5060208310610133831016604e8410600b84101617156155685782820a90508381111561556357615562615818565b5b615592565b6155758484846001615428565b9250905081840481111561558c5761558b615818565b5b81810290505b9392505050565b60006155a482615679565b91506155af83615679565b9250817fffffffffffffffffffffffffffffffffffffffffffffffffffffffffffffffff04831182151516156155e8576155e7615818565b5b828202905092915050565b60006155fe82615679565b915061560983615679565b92508282101561561c5761561b615818565b5b828203905092915050565b600061563282615659565b9050919050565b60008115159050919050565b6000819050919050565b6000819050919050565b600073ffffffffffffffffffffffffffffffffffffffff82169050919050565b6000819050919050565b600060ff82169050919050565b600069ffffffffffffffffffff82169050919050565b60006156b1826156b8565b9050919050565b60006156c3826156ca565b9050919050565b60006156d582615659565b9050919050565b60005b838110156156fa5780820151818401526020810190506156df565b83811115615709576000848401525b50505050565b6000600282049050600182168061572757607f821691505b6020821081141561573b5761573a6158a5565b5b50919050565b61574a82615975565b810181811067ffffffffffffffff8211171561576957615768615932565b5b80604052505050565b600061577d8261564f565b91507f7fffffffffffffffffffffffffffffffffffffffffffffffffffffffffffffff8214156157b0576157af615818565b5b600182019050919050565b60006157c682615679565b91507fffffffffffffffffffffffffffffffffffffffffffffffffffffffffffffffff8214156157f9576157f8615818565b5b600182019050919050565b6000819050919050565b6000819050919050565b7f4e487b7100000000000000000000000000000000000000000000000000000000600052601160045260246000fd5b7f4e487b7100000000000000000000000000000000000000000000000000000000600052601260045260246000fd5b7f4e487b7100000000000000000000000000000000000000000000000000000000600052602160045260246000fd5b7f4e487b7100000000000000000000000000000000000000000000000000000000600052602260045260246000fd5b7f4e487b7100000000000000000000000000000000000000000000000000000000600052603160045260246000fd5b7f4e487b7100000000000000000000000000000000000000000000000000000000600052603260045260246000fd5b7f4e487b7100000000000000000000000000000000000000000000000000000000600052604160045260246000fd5b600080fd5b600080fd5b600080fd5b600080fd5b6000601f19601f8301169050919050565b60008160011c9050919050565b7f45524332303a207472616e7366657220746f20746865207a65726f206164647260008201527f6573730000000000000000000000000000000000000000000000000000000000602082015250565b7f45524332303a206275726e20616d6f756e7420657863656564732062616c616e60008201527f6365000000000000000000000000000000000000000000000000000000000000602082015250565b7f4f776e61626c653a206e6577206f776e657220697320746865207a65726f206160008201527f6464726573730000000000000000000000000000000000000000000000000000602082015250565b7f45524332303a20617070726f766520746f20746865207a65726f20616464726560008201527f7373000000000000000000000000000000000000000000000000000000000000602082015250565b7f4661696c656420746f2077697468647261772041564158000000000000000000600082015250565b7f616c726561647920766f74656400000000000000000000000000000000000000600082015250565b7f4e6f7420656e6f7567682066756e647300000000000000000000000000000000600082015250565b7f45524332303a207472616e7366657220616d6f756e742065786365656473206260008201527f616c616e63650000000000000000000000000000000000000000000000000000602082015250565b7f4e6f7420656e6f756768204c494e4b202d2066696c6c20636f6e74726163742060008201527f7769746820666175636574000000000000000000000000000000000000000000602082015250565b7f45524332303a207472616e7366657220616d6f756e742065786365656473206160008201527f6c6c6f77616e6365000000000000000000000000000000000000000000000000602082015250565b7f4f776e61626c653a2063616c6c6572206973206e6f7420746865206f776e6572600082015250565b7f4f6e6c7920565246436f6f7264696e61746f722063616e2066756c66696c6c00600082015250565b7f45524332303a206275726e2066726f6d20746865207a65726f2061646472657360008201527f7300000000000000000000000000000000000000000000000000000000000000602082015250565b7f45524332303a207472616e736665722066726f6d20746865207a65726f20616460008201527f6472657373000000000000000000000000000000000000000000000000000000602082015250565b50565b7f45524332303a20617070726f76652066726f6d20746865207a65726f2061646460008201527f7265737300000000000000000000000000000000000000000000000000000000602082015250565b7f45524332303a2064656372656173656420616c6c6f77616e63652062656c6f7760008201527f207a65726f000000000000000000000000000000000000000000000000000000602082015250565b7f4e6f7420617574686f72697a6564000000000000000000000000000000000000600082015250565b7f45524332303a206d696e7420746f20746865207a65726f206164647265737300600082015250565b7f496e73756666696369656e74207265736f757263657300000000000000000000600082015250565b615e4c81615627565b8114615e5757600080fd5b50565b615e6381615639565b8114615e6e57600080fd5b50565b615e7a81615645565b8114615e8557600080fd5b50565b615e918161564f565b8114615e9c57600080fd5b50565b615ea881615679565b8114615eb357600080fd5b50565b615ebf81615690565b8114615eca57600080fd5b5056fea2646970667358221220530984ae2d646cb5c6073f0884d2fe8de8506477a8d878bc17e266faf921a70764736f6c63430008070033",
  "linkReferences": {},
  "deployedLinkReferences": {}
}